{
  "transactions": [
    {
      "hash": "0x676e137f58dcf1ce5b98634b0ea534aecde9bbc193fc90b68e86cd8cbb53499a",
      "transactionType": "CALL",
      "contractName": null,
      "contractAddress": "0x0aa2c0a3ffc7cce1ae1e8e22eafb69a8b8085cc8",
      "function": "mint(address,uint256)",
      "arguments": [
        "0x80569F788Ca7564429feB8Aabdd4Ff73e0aC98E0",
        "1000000000000000000000"
      ],
      "transaction": {
        "from": "0x80569f788ca7564429feb8aabdd4ff73e0ac98e0",
        "to": "0x0aa2c0a3ffc7cce1ae1e8e22eafb69a8b8085cc8",
        "gas": "0xd3fc",
        "value": "0x0",
        "input": "0x40c10f1900000000000000000000000080569f788ca7564429feb8aabdd4ff73e0ac98e000000000000000000000000000000000000000000000003635c9adc5dea00000",
        "nonce": "0x64",
        "chainId": "0x8274f"
      },
      "additionalContracts": [],
      "isFixedGasLimit": false
    },
    {
      "hash": "0x60ea137396cbe6789d0a5537bfc571111beebc1c66c5e90cdaebb3d2d88490a6",
      "transactionType": "CALL",
      "contractName": null,
      "contractAddress": "0xbf3d216b20601e6be767a009369c3ea42966d91f",
      "function": "createProject(bytes32,address)",
      "arguments": [
        "0x4c943b57f49861d94845bf2548ef5031c12c52113f8ec6890b91b73688a960f0",
        "0x80569F788Ca7564429feB8Aabdd4Ff73e0aC98E0"
      ],
      "transaction": {
        "from": "0x80569f788ca7564429feb8aabdd4ff73e0ac98e0",
        "to": "0xbf3d216b20601e6be767a009369c3ea42966d91f",
        "gas": "0x1965c",
        "value": "0x0",
        "input": "0x4ed4fb664c943b57f49861d94845bf2548ef5031c12c52113f8ec6890b91b73688a960f000000000000000000000000080569f788ca7564429feb8aabdd4ff73e0ac98e0",
        "nonce": "0x65",
        "chainId": "0x8274f"
      },
      "additionalContracts": [],
      "isFixedGasLimit": false
    }
  ],
  "receipts": [
    {
      "status": "0x1",
      "cumulativeGasUsed": "0x90f3",
      "logs": [
        {
          "address": "0x0aa2c0a3ffc7cce1ae1e8e22eafb69a8b8085cc8",
          "topics": [
            "0xddf252ad1be2c89b69c2b068fc378daa952ba7f163c4a11628f55a4df523b3ef",
            "0x0000000000000000000000000000000000000000000000000000000000000000",
            "0x00000000000000000000000080569f788ca7564429feb8aabdd4ff73e0ac98e0"
          ],
          "data": "0x00000000000000000000000000000000000000000000003635c9adc5dea00000",
          "blockHash": "0xcaeaa3fe4036d29d2b9652a066ce94b266a4214f8089858bf8bcffe46b5c55cd",
          "blockNumber": "0xb3bb1f",
          "transactionHash": "0x676e137f58dcf1ce5b98634b0ea534aecde9bbc193fc90b68e86cd8cbb53499a",
          "transactionIndex": "0x0",
          "logIndex": "0x0",
          "removed": false
        }
      ],
      "logsBloom": "0x00001000000000000000000000000000000000000000000000000000000000000000000040200000000000000000000000000000000000000000000000000000000000000000000000000008000000000000000000000000000000000000000000000000020000000000000000000800000000000000000000000010000000000000000000000000000000000000000000000000000000000000000000000000000000000000000000000020000000000000000800000000000000000000000000000002000000000000000000000000000000000000000000000000000020000000000000000000000000000000000000000000000000000000100000000000",
      "type": "0x0",
      "transactionHash": "0x676e137f58dcf1ce5b98634b0ea534aecde9bbc193fc90b68e86cd8cbb53499a",
      "transactionIndex": "0x0",
      "blockHash": "0xcaeaa3fe4036d29d2b9652a066ce94b266a4214f8089858bf8bcffe46b5c55cd",
      "blockNumber": "0xb3bb1f",
      "gasUsed": "0x90f3",
      "effectiveGasPrice": "0xef426b",
      "from": "0x80569f788ca7564429feb8aabdd4ff73e0ac98e0",
      "to": "0x0aa2c0a3ffc7cce1ae1e8e22eafb69a8b8085cc8",
      "contractAddress": null,
      "l1Fee": "0x295403f999"
    },
    {
      "status": "0x1",
      "cumulativeGasUsed": "0x1a6ce",
      "logs": [
        {
          "address": "0xbf3d216b20601e6be767a009369c3ea42966d91f",
          "topics": [
            "0x72d3574e35dc5b7a620c3cbcb395fec0497a0427c47762bfe8deba4688f6ff18",
            "0x4c943b57f49861d94845bf2548ef5031c12c52113f8ec6890b91b73688a960f0",
            "0x00000000000000000000000080569f788ca7564429feb8aabdd4ff73e0ac98e0"
          ],
          "data": "0x",
          "blockHash": "0xcaeaa3fe4036d29d2b9652a066ce94b266a4214f8089858bf8bcffe46b5c55cd",
          "blockNumber": "0xb3bb1f",
          "transactionHash": "0x60ea137396cbe6789d0a5537bfc571111beebc1c66c5e90cdaebb3d2d88490a6",
          "transactionIndex": "0x1",
          "logIndex": "0x1",
          "removed": false
        }
      ],
      "logsBloom": "0x00000000000000000000000000000000000000000000000000000000000000000000000000200000000000000000000000000000000000000000000000000000000000000000000000000000000000000000000000000000000000000000000000000000000000000000000000000000000008000000000000000000004000000000800000000000000000000000000000000000000000000000000000000000000000000000000001000020000000000000000000000000000000100000001000000000000000000000000000000000001000000000000000000000100000000000000000000000000000000000000000000000000000000000100000000000",
      "type": "0x0",
      "transactionHash": "0x60ea137396cbe6789d0a5537bfc571111beebc1c66c5e90cdaebb3d2d88490a6",
      "transactionIndex": "0x1",
      "blockHash": "0xcaeaa3fe4036d29d2b9652a066ce94b266a4214f8089858bf8bcffe46b5c55cd",
      "blockNumber": "0xb3bb1f",
      "gasUsed": "0x115db",
      "effectiveGasPrice": "0xef426b",
      "from": "0x80569f788ca7564429feb8aabdd4ff73e0ac98e0",
      "to": "0xbf3d216b20601e6be767a009369c3ea42966d91f",
      "contractAddress": null,
      "l1Fee": "0x7cb494ecae"
    }
  ],
  "libraries": [],
  "pending": [],
  "returns": {},
  "timestamp": 1756162800028,
  "chain": 534351,
  "commit": null
}